{
	"functions.sol": {
		"Functions": {
			"abi": [
				{
					"inputs": [],
					"name": "birdenFazlaVeriDonen",
					"outputs": [
						{
							"internalType": "uint256",
							"name": "",
							"type": "uint256"
						},
						{
							"internalType": "bool",
							"name": "",
							"type": "bool"
						},
						{
							"internalType": "bool",
							"name": "",
							"type": "bool"
						}
					],
					"stateMutability": "pure",
					"type": "function"
				},
				{
					"inputs": [],
					"name": "birdenFazlaVeriDonen2",
					"outputs": [
						{
							"internalType": "uint256",
							"name": "x",
							"type": "uint256"
						},
						{
							"internalType": "bool",
							"name": "y",
							"type": "bool"
						},
						{
							"internalType": "bool",
							"name": "z",
							"type": "bool"
						}
					],
					"stateMutability": "pure",
					"type": "function"
				},
				{
					"inputs": [
						{
							"internalType": "uint256",
							"name": "newNumber",
							"type": "uint256"
						}
					],
					"name": "setNumber",
					"outputs": [],
					"stateMutability": "nonpayable",
					"type": "function"
				},
				{
					"inputs": [],
					"name": "showNumber",
					"outputs": [
						{
							"internalType": "uint256",
							"name": "",
							"type": "uint256"
						}
					],
					"stateMutability": "view",
					"type": "function"
				}
			],
			"devdoc": {
				"kind": "dev",
				"methods": {},
				"version": 1
			},
			"evm": {
				"assembly": "    /* \"functions.sol\":57:830  contract Functions{... */\n  mstore(0x40, 0x80)\n    /* \"functions.sol\":101:102  7 */\n  0x07\n    /* \"functions.sol\":82:102  uint luckyNumber = 7 */\n  0x00\n  sstore\n    /* \"functions.sol\":57:830  contract Functions{... */\n  callvalue\n  dup1\n  iszero\n  tag_1\n  jumpi\n  0x00\n  dup1\n  revert\ntag_1:\n  pop\n  dataSize(sub_0)\n  dup1\n  dataOffset(sub_0)\n  0x00\n  codecopy\n  0x00\n  return\nstop\n\nsub_0: assembly {\n        /* \"functions.sol\":57:830  contract Functions{... */\n      mstore(0x40, 0x80)\n      callvalue\n      dup1\n      iszero\n      tag_1\n      jumpi\n      0x00\n      dup1\n      revert\n    tag_1:\n      pop\n      jumpi(tag_2, lt(calldatasize, 0x04))\n      shr(0xe0, calldataload(0x00))\n      dup1\n      0x07718f7e\n      eq\n      tag_3\n      jumpi\n      dup1\n      0x3fb5c1cb\n      eq\n      tag_4\n      jumpi\n      dup1\n      0x76dad223\n      eq\n      tag_5\n      jumpi\n      dup1\n      0x7af9463a\n      eq\n      tag_6\n      jumpi\n    tag_2:\n      0x00\n      dup1\n      revert\n        /* \"functions.sol\":286:436  function birdenFazlaVeriDonen () public pure returns(uint, bool, bool){... */\n    tag_3:\n      tag_7\n      tag_8\n      jump\t// in\n    tag_7:\n      mload(0x40)\n      tag_9\n      swap4\n      swap3\n      swap2\n      swap1\n      tag_10\n      jump\t// in\n    tag_9:\n      mload(0x40)\n      dup1\n      swap2\n      sub\n      swap1\n      return\n        /* \"functions.sol\":198:280  function setNumber(uint newNumber) public {... */\n    tag_4:\n      tag_11\n      0x04\n      dup1\n      calldatasize\n      sub\n      dup2\n      add\n      swap1\n      tag_12\n      swap2\n      swap1\n      tag_13\n      jump\t// in\n    tag_12:\n      tag_14\n      jump\t// in\n    tag_11:\n      stop\n        /* \"functions.sol\":109:192  function showNumber() public view returns(uint) {... */\n    tag_5:\n      tag_15\n      tag_16\n      jump\t// in\n    tag_15:\n      mload(0x40)\n      tag_17\n      swap2\n      swap1\n      tag_18\n      jump\t// in\n    tag_17:\n      mload(0x40)\n      dup1\n      swap2\n      sub\n      swap1\n      return\n        /* \"functions.sol\":585:826  function birdenFazlaVeriDonen2 () public pure returns( uint x, bool y, bool z){... */\n    tag_6:\n      tag_19\n      tag_20\n      jump\t// in\n    tag_19:\n      mload(0x40)\n      tag_21\n      swap4\n      swap3\n      swap2\n      swap1\n      tag_10\n      jump\t// in\n    tag_21:\n      mload(0x40)\n      dup1\n      swap2\n      sub\n      swap1\n      return\n        /* \"functions.sol\":286:436  function birdenFazlaVeriDonen () public pure returns(uint, bool, bool){... */\n    tag_8:\n        /* \"functions.sol\":339:343  uint */\n      0x00\n        /* \"functions.sol\":345:349  bool */\n      dup1\n        /* \"functions.sol\":351:355  bool */\n      0x00\n        /* \"functions.sol\":374:375  5 */\n      0x05\n        /* \"functions.sol\":377:381  true */\n      0x01\n        /* \"functions.sol\":383:388  false */\n      0x00\n        /* \"functions.sol\":366:389  return (5, true, false) */\n      swap3\n      pop\n      swap3\n      pop\n      swap3\n      pop\n        /* \"functions.sol\":286:436  function birdenFazlaVeriDonen () public pure returns(uint, bool, bool){... */\n      swap1\n      swap2\n      swap3\n      jump\t// out\n        /* \"functions.sol\":198:280  function setNumber(uint newNumber) public {... */\n    tag_14:\n        /* \"functions.sol\":264:273  newNumber */\n      dup1\n        /* \"functions.sol\":250:261  luckyNumber */\n      0x00\n        /* \"functions.sol\":250:273  luckyNumber = newNumber */\n      dup2\n      swap1\n      sstore\n      pop\n        /* \"functions.sol\":198:280  function setNumber(uint newNumber) public {... */\n      pop\n      jump\t// out\n        /* \"functions.sol\":109:192  function showNumber() public view returns(uint) {... */\n    tag_16:\n        /* \"functions.sol\":151:155  uint */\n      0x00\n        /* \"functions.sol\":174:185  luckyNumber */\n      dup1\n      sload\n        /* \"functions.sol\":167:185  return luckyNumber */\n      swap1\n      pop\n        /* \"functions.sol\":109:192  function showNumber() public view returns(uint) {... */\n      swap1\n      jump\t// out\n        /* \"functions.sol\":585:826  function birdenFazlaVeriDonen2 () public pure returns( uint x, bool y, bool z){... */\n    tag_20:\n        /* \"functions.sol\":640:646  uint x */\n      0x00\n        /* \"functions.sol\":648:654  bool y */\n      dup1\n        /* \"functions.sol\":656:662  bool z */\n      0x00\n        /* \"functions.sol\":677:678  6 */\n      0x06\n        /* \"functions.sol\":673:678  x = 6 */\n      swap3\n      pop\n        /* \"functions.sol\":692:696  true */\n      0x01\n        /* \"functions.sol\":688:696  y = true */\n      swap2\n      pop\n        /* \"functions.sol\":710:715  false */\n      0x00\n        /* \"functions.sol\":706:715  z = false */\n      swap1\n      pop\n        /* \"functions.sol\":585:826  function birdenFazlaVeriDonen2 () public pure returns( uint x, bool y, bool z){... */\n      swap1\n      swap2\n      swap3\n      jump\t// out\n        /* \"#utility.yul\":7:84   */\n    tag_26:\n        /* \"#utility.yul\":44:51   */\n      0x00\n        /* \"#utility.yul\":73:78   */\n      dup2\n        /* \"#utility.yul\":62:78   */\n      swap1\n      pop\n        /* \"#utility.yul\":7:84   */\n      swap2\n      swap1\n      pop\n      jump\t// out\n        /* \"#utility.yul\":90:208   */\n    tag_27:\n        /* \"#utility.yul\":177:201   */\n      tag_38\n        /* \"#utility.yul\":195:200   */\n      dup2\n        /* \"#utility.yul\":177:201   */\n      tag_26\n      jump\t// in\n    tag_38:\n        /* \"#utility.yul\":172:175   */\n      dup3\n        /* \"#utility.yul\":165:202   */\n      mstore\n        /* \"#utility.yul\":90:208   */\n      pop\n      pop\n      jump\t// out\n        /* \"#utility.yul\":214:304   */\n    tag_28:\n        /* \"#utility.yul\":248:255   */\n      0x00\n        /* \"#utility.yul\":291:296   */\n      dup2\n        /* \"#utility.yul\":284:297   */\n      iszero\n        /* \"#utility.yul\":277:298   */\n      iszero\n        /* \"#utility.yul\":266:298   */\n      swap1\n      pop\n        /* \"#utility.yul\":214:304   */\n      swap2\n      swap1\n      pop\n      jump\t// out\n        /* \"#utility.yul\":310:419   */\n    tag_29:\n        /* \"#utility.yul\":391:412   */\n      tag_41\n        /* \"#utility.yul\":406:411   */\n      dup2\n        /* \"#utility.yul\":391:412   */\n      tag_28\n      jump\t// in\n    tag_41:\n        /* \"#utility.yul\":386:389   */\n      dup3\n        /* \"#utility.yul\":379:413   */\n      mstore\n        /* \"#utility.yul\":310:419   */\n      pop\n      pop\n      jump\t// out\n        /* \"#utility.yul\":425:843   */\n    tag_10:\n        /* \"#utility.yul\":562:566   */\n      0x00\n        /* \"#utility.yul\":600:602   */\n      0x60\n        /* \"#utility.yul\":589:598   */\n      dup3\n        /* \"#utility.yul\":585:603   */\n      add\n        /* \"#utility.yul\":577:603   */\n      swap1\n      pop\n        /* \"#utility.yul\":613:684   */\n      tag_43\n        /* \"#utility.yul\":681:682   */\n      0x00\n        /* \"#utility.yul\":670:679   */\n      dup4\n        /* \"#utility.yul\":666:683   */\n      add\n        /* \"#utility.yul\":657:663   */\n      dup7\n        /* \"#utility.yul\":613:684   */\n      tag_27\n      jump\t// in\n    tag_43:\n        /* \"#utility.yul\":694:760   */\n      tag_44\n        /* \"#utility.yul\":756:758   */\n      0x20\n        /* \"#utility.yul\":745:754   */\n      dup4\n        /* \"#utility.yul\":741:759   */\n      add\n        /* \"#utility.yul\":732:738   */\n      dup6\n        /* \"#utility.yul\":694:760   */\n      tag_29\n      jump\t// in\n    tag_44:\n        /* \"#utility.yul\":770:836   */\n      tag_45\n        /* \"#utility.yul\":832:834   */\n      0x40\n        /* \"#utility.yul\":821:830   */\n      dup4\n        /* \"#utility.yul\":817:835   */\n      add\n        /* \"#utility.yul\":808:814   */\n      dup5\n        /* \"#utility.yul\":770:836   */\n      tag_29\n      jump\t// in\n    tag_45:\n        /* \"#utility.yul\":425:843   */\n      swap5\n      swap4\n      pop\n      pop\n      pop\n      pop\n      jump\t// out\n        /* \"#utility.yul\":930:1047   */\n    tag_31:\n        /* \"#utility.yul\":1039:1040   */\n      0x00\n        /* \"#utility.yul\":1036:1037   */\n      dup1\n        /* \"#utility.yul\":1029:1041   */\n      revert\n        /* \"#utility.yul\":1176:1298   */\n    tag_33:\n        /* \"#utility.yul\":1249:1273   */\n      tag_50\n        /* \"#utility.yul\":1267:1272   */\n      dup2\n        /* \"#utility.yul\":1249:1273   */\n      tag_26\n      jump\t// in\n    tag_50:\n        /* \"#utility.yul\":1242:1247   */\n      dup2\n        /* \"#utility.yul\":1239:1274   */\n      eq\n        /* \"#utility.yul\":1229:1292   */\n      tag_51\n      jumpi\n        /* \"#utility.yul\":1288:1289   */\n      0x00\n        /* \"#utility.yul\":1285:1286   */\n      dup1\n        /* \"#utility.yul\":1278:1290   */\n      revert\n        /* \"#utility.yul\":1229:1292   */\n    tag_51:\n        /* \"#utility.yul\":1176:1298   */\n      pop\n      jump\t// out\n        /* \"#utility.yul\":1304:1443   */\n    tag_34:\n        /* \"#utility.yul\":1350:1355   */\n      0x00\n        /* \"#utility.yul\":1388:1394   */\n      dup2\n        /* \"#utility.yul\":1375:1395   */\n      calldataload\n        /* \"#utility.yul\":1366:1395   */\n      swap1\n      pop\n        /* \"#utility.yul\":1404:1437   */\n      tag_53\n        /* \"#utility.yul\":1431:1436   */\n      dup2\n        /* \"#utility.yul\":1404:1437   */\n      tag_33\n      jump\t// in\n    tag_53:\n        /* \"#utility.yul\":1304:1443   */\n      swap3\n      swap2\n      pop\n      pop\n      jump\t// out\n        /* \"#utility.yul\":1449:1778   */\n    tag_13:\n        /* \"#utility.yul\":1508:1514   */\n      0x00\n        /* \"#utility.yul\":1557:1559   */\n      0x20\n        /* \"#utility.yul\":1545:1554   */\n      dup3\n        /* \"#utility.yul\":1536:1543   */\n      dup5\n        /* \"#utility.yul\":1532:1555   */\n      sub\n        /* \"#utility.yul\":1528:1560   */\n      slt\n        /* \"#utility.yul\":1525:1644   */\n      iszero\n      tag_55\n      jumpi\n        /* \"#utility.yul\":1563:1642   */\n      tag_56\n      tag_31\n      jump\t// in\n    tag_56:\n        /* \"#utility.yul\":1525:1644   */\n    tag_55:\n        /* \"#utility.yul\":1683:1684   */\n      0x00\n        /* \"#utility.yul\":1708:1761   */\n      tag_57\n        /* \"#utility.yul\":1753:1760   */\n      dup5\n        /* \"#utility.yul\":1744:1750   */\n      dup3\n        /* \"#utility.yul\":1733:1742   */\n      dup6\n        /* \"#utility.yul\":1729:1751   */\n      add\n        /* \"#utility.yul\":1708:1761   */\n      tag_34\n      jump\t// in\n    tag_57:\n        /* \"#utility.yul\":1698:1761   */\n      swap2\n      pop\n        /* \"#utility.yul\":1654:1771   */\n      pop\n        /* \"#utility.yul\":1449:1778   */\n      swap3\n      swap2\n      pop\n      pop\n      jump\t// out\n        /* \"#utility.yul\":1784:2006   */\n    tag_18:\n        /* \"#utility.yul\":1877:1881   */\n      0x00\n        /* \"#utility.yul\":1915:1917   */\n      0x20\n        /* \"#utility.yul\":1904:1913   */\n      dup3\n        /* \"#utility.yul\":1900:1918   */\n      add\n        /* \"#utility.yul\":1892:1918   */\n      swap1\n      pop\n        /* \"#utility.yul\":1928:1999   */\n      tag_59\n        /* \"#utility.yul\":1996:1997   */\n      0x00\n        /* \"#utility.yul\":1985:1994   */\n      dup4\n        /* \"#utility.yul\":1981:1998   */\n      add\n        /* \"#utility.yul\":1972:1978   */\n      dup5\n        /* \"#utility.yul\":1928:1999   */\n      tag_27\n      jump\t// in\n    tag_59:\n        /* \"#utility.yul\":1784:2006   */\n      swap3\n      swap2\n      pop\n      pop\n      jump\t// out\n\n    auxdata: 0xa264697066735822122063b0fad9d92c1df8a4f2eca1c87672f9b6a7c52bb7e9173ce1fc6b518db1a05a64736f6c634300080a0033\n}\n",
				"bytecode": {
					"linkReferences": {},
					"object": "6080604052600760005534801561001557600080fd5b50610224806100256000396000f3fe608060405234801561001057600080fd5b506004361061004c5760003560e01c806307718f7e146100515780633fb5c1cb1461007157806376dad2231461008d5780637af9463a146100ab575b600080fd5b6100596100cb565b6040516100689392919061013e565b60405180910390f35b61008b600480360381019061008691906101a6565b6100e1565b005b6100956100eb565b6040516100a291906101d3565b60405180910390f35b6100b36100f4565b6040516100c29392919061013e565b60405180910390f35b6000806000600560016000925092509250909192565b8060008190555050565b60008054905090565b6000806000600692506001915060009050909192565b6000819050919050565b61011d8161010a565b82525050565b60008115159050919050565b61013881610123565b82525050565b60006060820190506101536000830186610114565b610160602083018561012f565b61016d604083018461012f565b949350505050565b600080fd5b6101838161010a565b811461018e57600080fd5b50565b6000813590506101a08161017a565b92915050565b6000602082840312156101bc576101bb610175565b5b60006101ca84828501610191565b91505092915050565b60006020820190506101e86000830184610114565b9291505056fea264697066735822122063b0fad9d92c1df8a4f2eca1c87672f9b6a7c52bb7e9173ce1fc6b518db1a05a64736f6c634300080a0033",
					"opcodes": "PUSH1 0x80 PUSH1 0x40 MSTORE PUSH1 0x7 PUSH1 0x0 SSTORE CALLVALUE DUP1 ISZERO PUSH2 0x15 JUMPI PUSH1 0x0 DUP1 REVERT JUMPDEST POP PUSH2 0x224 DUP1 PUSH2 0x25 PUSH1 0x0 CODECOPY PUSH1 0x0 RETURN INVALID PUSH1 0x80 PUSH1 0x40 MSTORE CALLVALUE DUP1 ISZERO PUSH2 0x10 JUMPI PUSH1 0x0 DUP1 REVERT JUMPDEST POP PUSH1 0x4 CALLDATASIZE LT PUSH2 0x4C JUMPI PUSH1 0x0 CALLDATALOAD PUSH1 0xE0 SHR DUP1 PUSH4 0x7718F7E EQ PUSH2 0x51 JUMPI DUP1 PUSH4 0x3FB5C1CB EQ PUSH2 0x71 JUMPI DUP1 PUSH4 0x76DAD223 EQ PUSH2 0x8D JUMPI DUP1 PUSH4 0x7AF9463A EQ PUSH2 0xAB JUMPI JUMPDEST PUSH1 0x0 DUP1 REVERT JUMPDEST PUSH2 0x59 PUSH2 0xCB JUMP JUMPDEST PUSH1 0x40 MLOAD PUSH2 0x68 SWAP4 SWAP3 SWAP2 SWAP1 PUSH2 0x13E JUMP JUMPDEST PUSH1 0x40 MLOAD DUP1 SWAP2 SUB SWAP1 RETURN JUMPDEST PUSH2 0x8B PUSH1 0x4 DUP1 CALLDATASIZE SUB DUP2 ADD SWAP1 PUSH2 0x86 SWAP2 SWAP1 PUSH2 0x1A6 JUMP JUMPDEST PUSH2 0xE1 JUMP JUMPDEST STOP JUMPDEST PUSH2 0x95 PUSH2 0xEB JUMP JUMPDEST PUSH1 0x40 MLOAD PUSH2 0xA2 SWAP2 SWAP1 PUSH2 0x1D3 JUMP JUMPDEST PUSH1 0x40 MLOAD DUP1 SWAP2 SUB SWAP1 RETURN JUMPDEST PUSH2 0xB3 PUSH2 0xF4 JUMP JUMPDEST PUSH1 0x40 MLOAD PUSH2 0xC2 SWAP4 SWAP3 SWAP2 SWAP1 PUSH2 0x13E JUMP JUMPDEST PUSH1 0x40 MLOAD DUP1 SWAP2 SUB SWAP1 RETURN JUMPDEST PUSH1 0x0 DUP1 PUSH1 0x0 PUSH1 0x5 PUSH1 0x1 PUSH1 0x0 SWAP3 POP SWAP3 POP SWAP3 POP SWAP1 SWAP2 SWAP3 JUMP JUMPDEST DUP1 PUSH1 0x0 DUP2 SWAP1 SSTORE POP POP JUMP JUMPDEST PUSH1 0x0 DUP1 SLOAD SWAP1 POP SWAP1 JUMP JUMPDEST PUSH1 0x0 DUP1 PUSH1 0x0 PUSH1 0x6 SWAP3 POP PUSH1 0x1 SWAP2 POP PUSH1 0x0 SWAP1 POP SWAP1 SWAP2 SWAP3 JUMP JUMPDEST PUSH1 0x0 DUP2 SWAP1 POP SWAP2 SWAP1 POP JUMP JUMPDEST PUSH2 0x11D DUP2 PUSH2 0x10A JUMP JUMPDEST DUP3 MSTORE POP POP JUMP JUMPDEST PUSH1 0x0 DUP2 ISZERO ISZERO SWAP1 POP SWAP2 SWAP1 POP JUMP JUMPDEST PUSH2 0x138 DUP2 PUSH2 0x123 JUMP JUMPDEST DUP3 MSTORE POP POP JUMP JUMPDEST PUSH1 0x0 PUSH1 0x60 DUP3 ADD SWAP1 POP PUSH2 0x153 PUSH1 0x0 DUP4 ADD DUP7 PUSH2 0x114 JUMP JUMPDEST PUSH2 0x160 PUSH1 0x20 DUP4 ADD DUP6 PUSH2 0x12F JUMP JUMPDEST PUSH2 0x16D PUSH1 0x40 DUP4 ADD DUP5 PUSH2 0x12F JUMP JUMPDEST SWAP5 SWAP4 POP POP POP POP JUMP JUMPDEST PUSH1 0x0 DUP1 REVERT JUMPDEST PUSH2 0x183 DUP2 PUSH2 0x10A JUMP JUMPDEST DUP2 EQ PUSH2 0x18E JUMPI PUSH1 0x0 DUP1 REVERT JUMPDEST POP JUMP JUMPDEST PUSH1 0x0 DUP2 CALLDATALOAD SWAP1 POP PUSH2 0x1A0 DUP2 PUSH2 0x17A JUMP JUMPDEST SWAP3 SWAP2 POP POP JUMP JUMPDEST PUSH1 0x0 PUSH1 0x20 DUP3 DUP5 SUB SLT ISZERO PUSH2 0x1BC JUMPI PUSH2 0x1BB PUSH2 0x175 JUMP JUMPDEST JUMPDEST PUSH1 0x0 PUSH2 0x1CA DUP5 DUP3 DUP6 ADD PUSH2 0x191 JUMP JUMPDEST SWAP2 POP POP SWAP3 SWAP2 POP POP JUMP JUMPDEST PUSH1 0x0 PUSH1 0x20 DUP3 ADD SWAP1 POP PUSH2 0x1E8 PUSH1 0x0 DUP4 ADD DUP5 PUSH2 0x114 JUMP JUMPDEST SWAP3 SWAP2 POP POP JUMP INVALID LOG2 PUSH5 0x6970667358 0x22 SLT KECCAK256 PUSH4 0xB0FAD9D9 0x2C SAR 0xF8 LOG4 CALLCODE 0xEC LOG1 0xC8 PUSH23 0x72F9B6A7C52BB7E9173CE1FC6B518DB1A05A64736F6C63 NUMBER STOP ADDMOD EXP STOP CALLER "
				},
				"gasEstimates": {
					"creation": {
						"codeDepositCost": "109600",
						"executionCost": "22265",
						"totalCost": "131865"
					},
					"external": {
						"birdenFazlaVeriDonen()": "infinite",
						"birdenFazlaVeriDonen2()": "infinite",
						"setNumber(uint256)": "22520",
						"showNumber()": "2459"
					}
				},
				"methodIdentifiers": {
					"birdenFazlaVeriDonen()": "07718f7e",
					"birdenFazlaVeriDonen2()": "7af9463a",
					"setNumber(uint256)": "3fb5c1cb",
					"showNumber()": "76dad223"
				}
			},
			"storageLayout": {
				"storage": [
					{
						"astId": 4,
						"contract": "functions.sol:Functions",
						"label": "luckyNumber",
						"offset": 0,
						"slot": "0",
						"type": "t_uint256"
					}
				],
				"types": {
					"t_uint256": {
						"encoding": "inplace",
						"label": "uint256",
						"numberOfBytes": "32"
					}
				}
			},
			"userdoc": {
				"kind": "user",
				"methods": {},
				"version": 1
			}
		}
	}
}