{
    "contractName": "test",
    "abi": [
        {
            "anonymous": false,
            "inputs": [
                {
                    "indexed": true,
                    "internalType": "int256",
                    "name": "a",
                    "type": "int256"
                },
                {
                    "indexed": true,
                    "internalType": "address",
                    "name": "sender",
                    "type": "address"
                },
                {
                    "indexed": false,
                    "internalType": "int256",
                    "name": "result",
                    "type": "int256"
                }
            ],
            "name": "Multiplied",
            "type": "event"
        },
        {
            "inputs": [
                {
                    "internalType": "int256",
                    "name": "multiplier",
                    "type": "int256"
                }
            ],
            "name": "multi",
            "outputs": [],
            "stateMutability": "nonpayable",
            "type": "function"
        },
        {
            "inputs": [
                {
                    "internalType": "int256",
                    "name": "a",
                    "type": "int256"
                }
            ],
            "name": "multiply",
            "outputs": [
                {
                    "internalType": "int256",
                    "name": "r",
                    "type": "int256"
                }
            ],
            "stateMutability": "nonpayable",
            "type": "function"
        }
    ],
    "bytecode": "608060405234801561001057600080fd5b50610169806100206000396000f3fe608060405234801561001057600080fd5b50600436106100365760003560e01c806314b0e9531461003b5780631df4f14414610050575b600080fd5b61004e6100493660046100ce565b600055565b005b61006361005e3660046100ce565b610075565b60405190815260200160405180910390f35b6000805461008390836100fd565b9050336001600160a01b0316827f841774c8b4d8511a3974d7040b5bc3c603d304c926ad25d168dacd04e25c4bed836040516100c191815260200190565b60405180910390a3919050565b6000602082840312156100e057600080fd5b5035919050565b634e487b7160e01b600052601160045260246000fd5b80820260008212600160ff1b84141615610119576101196100e7565b818105831482151761012d5761012d6100e7565b9291505056fea264697066735822122077f2fc306264f553da79325b1840e6aaf3e773f92f90fc1703751657d63128d664736f6c63430008130033",
    "sourcePath": "/Users/samedsakman/VsCode/Web3/NethereumDemo/NetherFirst/contracts/Multiply.sol",
    "compiler": {
        "name": "solc",
        "version": "0.8.19+commit.7dd6d404"
    },
    "functionHashes": {
        "multi(int256)": "14b0e953",
        "multiply(int256)": "1df4f144"
    },
    "gasEstimates": {
        "creation": {
            "codeDepositCost": "72200",
            "executionCost": "123",
            "totalCost": "72323"
        },
        "external": {
            "multi(int256)": "22290",
            "multiply(int256)": "4359"
        }
    }
}